{
  "_format": "hh-sol-artifact-1",
  "contractName": "CornerstoneProject",
  "sourceName": "src/core/CornerstoneProject.sol",
  "abi": [
    {
      "inputs": [
        {
          "internalType": "address",
          "name": "developer",
          "type": "address"
        },
        {
          "internalType": "address",
          "name": "usdc_",
          "type": "address"
        },
        {
          "internalType": "string",
          "name": "name_",
          "type": "string"
        },
        {
          "internalType": "string",
          "name": "symbol_",
          "type": "string"
        },
        {
          "internalType": "uint256",
          "name": "minRaise_",
          "type": "uint256"
        },
        {
          "internalType": "uint256",
          "name": "maxRaise_",
          "type": "uint256"
        },
        {
          "internalType": "uint256",
          "name": "fundraiseDeadline_",
          "type": "uint256"
        },
        {
          "internalType": "uint256[6]",
          "name": "phaseAPRs_",
          "type": "uint256[6]"
        },
        {
          "internalType": "uint256[6]",
          "name": "phaseDurations_",
          "type": "uint256[6]"
        },
        {
          "internalType": "uint256[6]",
          "name": "phaseCapsBps_",
          "type": "uint256[6]"
        }
      ],
      "stateMutability": "nonpayable",
      "type": "constructor"
    },
    {
      "inputs": [],
      "name": "EnforcedPause",
      "type": "error"
    },
    {
      "inputs": [],
      "name": "ExpectedPause",
      "type": "error"
    },
    {
      "inputs": [
        {
          "internalType": "address",
          "name": "owner",
          "type": "address"
        }
      ],
      "name": "OwnableInvalidOwner",
      "type": "error"
    },
    {
      "inputs": [
        {
          "internalType": "address",
          "name": "account",
          "type": "address"
        }
      ],
      "name": "OwnableUnauthorizedAccount",
      "type": "error"
    },
    {
      "inputs": [],
      "name": "ReentrancyGuardReentrantCall",
      "type": "error"
    },
    {
      "inputs": [
        {
          "internalType": "address",
          "name": "token",
          "type": "address"
        }
      ],
      "name": "SafeERC20FailedOperation",
      "type": "error"
    },
    {
      "anonymous": false,
      "inputs": [
        {
          "indexed": false,
          "internalType": "uint256",
          "name": "percentComplete",
          "type": "uint256"
        },
        {
          "indexed": false,
          "internalType": "bytes32",
          "name": "appraisalHash",
          "type": "bytes32"
        }
      ],
      "name": "AppraisalSubmitted",
      "type": "event"
    },
    {
      "anonymous": false,
      "inputs": [
        {
          "indexed": true,
          "internalType": "address",
          "name": "user",
          "type": "address"
        },
        {
          "indexed": false,
          "internalType": "uint256",
          "name": "amountUSDC",
          "type": "uint256"
        },
        {
          "indexed": false,
          "internalType": "uint256",
          "name": "sharesMinted",
          "type": "uint256"
        }
      ],
      "name": "Deposit",
      "type": "event"
    },
    {
      "anonymous": false,
      "inputs": [
        {
          "indexed": false,
          "internalType": "bool",
          "name": "successful",
          "type": "bool"
        }
      ],
      "name": "FundraiseClosed",
      "type": "event"
    },
    {
      "anonymous": false,
      "inputs": [
        {
          "indexed": true,
          "internalType": "address",
          "name": "user",
          "type": "address"
        },
        {
          "indexed": false,
          "internalType": "uint256",
          "name": "amount",
          "type": "uint256"
        }
      ],
      "name": "InterestClaimed",
      "type": "event"
    },
    {
      "anonymous": false,
      "inputs": [
        {
          "indexed": true,
          "internalType": "address",
          "name": "previousOwner",
          "type": "address"
        },
        {
          "indexed": true,
          "internalType": "address",
          "name": "newOwner",
          "type": "address"
        }
      ],
      "name": "OwnershipTransferred",
      "type": "event"
    },
    {
      "anonymous": false,
      "inputs": [
        {
          "indexed": false,
          "internalType": "address",
          "name": "account",
          "type": "address"
        }
      ],
      "name": "Paused",
      "type": "event"
    },
    {
      "anonymous": false,
      "inputs": [
        {
          "indexed": true,
          "internalType": "uint8",
          "name": "phaseId",
          "type": "uint8"
        },
        {
          "indexed": false,
          "internalType": "string[]",
          "name": "docTypes",
          "type": "string[]"
        },
        {
          "indexed": false,
          "internalType": "bytes32[]",
          "name": "docHashes",
          "type": "bytes32[]"
        },
        {
          "indexed": false,
          "internalType": "string[]",
          "name": "metadataURIs",
          "type": "string[]"
        }
      ],
      "name": "PhaseClosed",
      "type": "event"
    },
    {
      "anonymous": false,
      "inputs": [
        {
          "indexed": true,
          "internalType": "uint8",
          "name": "phaseId",
          "type": "uint8"
        },
        {
          "indexed": false,
          "internalType": "uint256",
          "name": "amount",
          "type": "uint256"
        }
      ],
      "name": "PhaseFundsWithdrawn",
      "type": "event"
    },
    {
      "anonymous": false,
      "inputs": [
        {
          "indexed": true,
          "internalType": "address",
          "name": "user",
          "type": "address"
        },
        {
          "indexed": false,
          "internalType": "uint256",
          "name": "amount",
          "type": "uint256"
        }
      ],
      "name": "PrincipalClaimed",
      "type": "event"
    },
    {
      "anonymous": false,
      "inputs": [
        {
          "indexed": false,
          "internalType": "uint256",
          "name": "amount",
          "type": "uint256"
        },
        {
          "indexed": true,
          "internalType": "address",
          "name": "by",
          "type": "address"
        }
      ],
      "name": "ReserveFunded",
      "type": "event"
    },
    {
      "anonymous": false,
      "inputs": [
        {
          "indexed": true,
          "internalType": "address",
          "name": "user",
          "type": "address"
        },
        {
          "indexed": false,
          "internalType": "uint256",
          "name": "amount",
          "type": "uint256"
        }
      ],
      "name": "RevenueClaimed",
      "type": "event"
    },
    {
      "anonymous": false,
      "inputs": [
        {
          "indexed": false,
          "internalType": "uint256",
          "name": "amount",
          "type": "uint256"
        }
      ],
      "name": "SalesProceedsSubmitted",
      "type": "event"
    },
    {
      "anonymous": false,
      "inputs": [
        {
          "indexed": false,
          "internalType": "address",
          "name": "account",
          "type": "address"
        }
      ],
      "name": "Unpaused",
      "type": "event"
    },
    {
      "inputs": [],
      "name": "NUM_PHASES",
      "outputs": [
        {
          "internalType": "uint8",
          "name": "",
          "type": "uint8"
        }
      ],
      "stateMutability": "view",
      "type": "function"
    },
    {
      "inputs": [],
      "name": "accrualBase",
      "outputs": [
        {
          "internalType": "uint256",
          "name": "",
          "type": "uint256"
        }
      ],
      "stateMutability": "view",
      "type": "function"
    },
    {
      "inputs": [],
      "name": "accrueInterest",
      "outputs": [],
      "stateMutability": "nonpayable",
      "type": "function"
    },
    {
      "inputs": [
        {
          "internalType": "uint256",
          "name": "amount",
          "type": "uint256"
        }
      ],
      "name": "claimInterest",
      "outputs": [],
      "stateMutability": "nonpayable",
      "type": "function"
    },
    {
      "inputs": [
        {
          "internalType": "address",
          "name": "",
          "type": "address"
        }
      ],
      "name": "claimPrincipal",
      "outputs": [],
      "stateMutability": "pure",
      "type": "function"
    },
    {
      "inputs": [
        {
          "internalType": "address",
          "name": "user",
          "type": "address"
        }
      ],
      "name": "claimRevenue",
      "outputs": [],
      "stateMutability": "nonpayable",
      "type": "function"
    },
    {
      "inputs": [
        {
          "internalType": "address",
          "name": "user",
          "type": "address"
        }
      ],
      "name": "claimableInterest",
      "outputs": [
        {
          "internalType": "uint256",
          "name": "",
          "type": "uint256"
        }
      ],
      "stateMutability": "view",
      "type": "function"
    },
    {
      "inputs": [
        {
          "internalType": "address",
          "name": "user",
          "type": "address"
        }
      ],
      "name": "claimableRevenue",
      "outputs": [
        {
          "internalType": "uint256",
          "name": "",
          "type": "uint256"
        }
      ],
      "stateMutability": "view",
      "type": "function"
    },
    {
      "inputs": [
        {
          "internalType": "uint8",
          "name": "phaseId",
          "type": "uint8"
        },
        {
          "internalType": "string[]",
          "name": "docTypes",
          "type": "string[]"
        },
        {
          "internalType": "bytes32[]",
          "name": "docHashes",
          "type": "bytes32[]"
        },
        {
          "internalType": "string[]",
          "name": "metadataURIs",
          "type": "string[]"
        }
      ],
      "name": "closePhase",
      "outputs": [],
      "stateMutability": "nonpayable",
      "type": "function"
    },
    {
      "inputs": [],
      "name": "currentPhase",
      "outputs": [
        {
          "internalType": "uint8",
          "name": "",
          "type": "uint8"
        }
      ],
      "stateMutability": "view",
      "type": "function"
    },
    {
      "inputs": [
        {
          "internalType": "uint256",
          "name": "amountUSDC",
          "type": "uint256"
        }
      ],
      "name": "deposit",
      "outputs": [],
      "stateMutability": "nonpayable",
      "type": "function"
    },
    {
      "inputs": [
        {
          "internalType": "uint256",
          "name": "amountUSDC",
          "type": "uint256"
        }
      ],
      "name": "fundReserve",
      "outputs": [],
      "stateMutability": "nonpayable",
      "type": "function"
    },
    {
      "inputs": [],
      "name": "fundraiseClosed",
      "outputs": [
        {
          "internalType": "bool",
          "name": "",
          "type": "bool"
        }
      ],
      "stateMutability": "view",
      "type": "function"
    },
    {
      "inputs": [],
      "name": "fundraiseDeadline",
      "outputs": [
        {
          "internalType": "uint256",
          "name": "",
          "type": "uint256"
        }
      ],
      "stateMutability": "view",
      "type": "function"
    },
    {
      "inputs": [],
      "name": "fundraiseSuccessful",
      "outputs": [
        {
          "internalType": "bool",
          "name": "",
          "type": "bool"
        }
      ],
      "stateMutability": "view",
      "type": "function"
    },
    {
      "inputs": [
        {
          "internalType": "uint8",
          "name": "phaseId",
          "type": "uint8"
        }
      ],
      "name": "getPhaseCap",
      "outputs": [
        {
          "internalType": "uint256",
          "name": "",
          "type": "uint256"
        }
      ],
      "stateMutability": "view",
      "type": "function"
    },
    {
      "inputs": [
        {
          "internalType": "uint8",
          "name": "phaseId",
          "type": "uint8"
        }
      ],
      "name": "getPhaseWithdrawn",
      "outputs": [
        {
          "internalType": "uint256",
          "name": "",
          "type": "uint256"
        }
      ],
      "stateMutability": "view",
      "type": "function"
    },
    {
      "inputs": [],
      "name": "interestPerShareX18",
      "outputs": [
        {
          "internalType": "uint256",
          "name": "",
          "type": "uint256"
        }
      ],
      "stateMutability": "view",
      "type": "function"
    },
    {
      "inputs": [],
      "name": "lastAccrualTs",
      "outputs": [
        {
          "internalType": "uint256",
          "name": "",
          "type": "uint256"
        }
      ],
      "stateMutability": "view",
      "type": "function"
    },
    {
      "inputs": [],
      "name": "lastAppraisalHash",
      "outputs": [
        {
          "internalType": "bytes32",
          "name": "",
          "type": "bytes32"
        }
      ],
      "stateMutability": "view",
      "type": "function"
    },
    {
      "inputs": [],
      "name": "lastClosedPhase",
      "outputs": [
        {
          "internalType": "uint8",
          "name": "",
          "type": "uint8"
        }
      ],
      "stateMutability": "view",
      "type": "function"
    },
    {
      "inputs": [],
      "name": "maxRaise",
      "outputs": [
        {
          "internalType": "uint256",
          "name": "",
          "type": "uint256"
        }
      ],
      "stateMutability": "view",
      "type": "function"
    },
    {
      "inputs": [],
      "name": "minRaise",
      "outputs": [
        {
          "internalType": "uint256",
          "name": "",
          "type": "uint256"
        }
      ],
      "stateMutability": "view",
      "type": "function"
    },
    {
      "inputs": [
        {
          "internalType": "address",
          "name": "from",
          "type": "address"
        },
        {
          "internalType": "address",
          "name": "to",
          "type": "address"
        },
        {
          "internalType": "uint256",
          "name": "amount",
          "type": "uint256"
        }
      ],
      "name": "onTokenTransfer",
      "outputs": [],
      "stateMutability": "nonpayable",
      "type": "function"
    },
    {
      "inputs": [],
      "name": "owner",
      "outputs": [
        {
          "internalType": "address",
          "name": "",
          "type": "address"
        }
      ],
      "stateMutability": "view",
      "type": "function"
    },
    {
      "inputs": [],
      "name": "pause",
      "outputs": [],
      "stateMutability": "nonpayable",
      "type": "function"
    },
    {
      "inputs": [],
      "name": "paused",
      "outputs": [
        {
          "internalType": "bool",
          "name": "",
          "type": "bool"
        }
      ],
      "stateMutability": "view",
      "type": "function"
    },
    {
      "inputs": [],
      "name": "phase5PercentComplete",
      "outputs": [
        {
          "internalType": "uint256",
          "name": "",
          "type": "uint256"
        }
      ],
      "stateMutability": "view",
      "type": "function"
    },
    {
      "inputs": [
        {
          "internalType": "uint256",
          "name": "",
          "type": "uint256"
        }
      ],
      "name": "phaseAPRsBps",
      "outputs": [
        {
          "internalType": "uint256",
          "name": "",
          "type": "uint256"
        }
      ],
      "stateMutability": "view",
      "type": "function"
    },
    {
      "inputs": [
        {
          "internalType": "uint256",
          "name": "",
          "type": "uint256"
        }
      ],
      "name": "phaseCapsBps",
      "outputs": [
        {
          "internalType": "uint256",
          "name": "",
          "type": "uint256"
        }
      ],
      "stateMutability": "view",
      "type": "function"
    },
    {
      "inputs": [
        {
          "internalType": "uint256",
          "name": "",
          "type": "uint256"
        }
      ],
      "name": "phaseDurations",
      "outputs": [
        {
          "internalType": "uint256",
          "name": "",
          "type": "uint256"
        }
      ],
      "stateMutability": "view",
      "type": "function"
    },
    {
      "inputs": [
        {
          "internalType": "uint8",
          "name": "",
          "type": "uint8"
        }
      ],
      "name": "phaseWithdrawn",
      "outputs": [
        {
          "internalType": "uint256",
          "name": "",
          "type": "uint256"
        }
      ],
      "stateMutability": "view",
      "type": "function"
    },
    {
      "inputs": [],
      "name": "poolBalance",
      "outputs": [
        {
          "internalType": "uint256",
          "name": "",
          "type": "uint256"
        }
      ],
      "stateMutability": "view",
      "type": "function"
    },
    {
      "inputs": [],
      "name": "principalBuffer",
      "outputs": [
        {
          "internalType": "uint256",
          "name": "",
          "type": "uint256"
        }
      ],
      "stateMutability": "view",
      "type": "function"
    },
    {
      "inputs": [],
      "name": "principalRedeemed",
      "outputs": [
        {
          "internalType": "uint256",
          "name": "",
          "type": "uint256"
        }
      ],
      "stateMutability": "view",
      "type": "function"
    },
    {
      "inputs": [
        {
          "internalType": "address",
          "name": "user",
          "type": "address"
        }
      ],
      "name": "refundIfMinNotMet",
      "outputs": [],
      "stateMutability": "nonpayable",
      "type": "function"
    },
    {
      "inputs": [],
      "name": "renounceOwnership",
      "outputs": [],
      "stateMutability": "nonpayable",
      "type": "function"
    },
    {
      "inputs": [],
      "name": "reserveBalance",
      "outputs": [
        {
          "internalType": "uint256",
          "name": "",
          "type": "uint256"
        }
      ],
      "stateMutability": "view",
      "type": "function"
    },
    {
      "inputs": [],
      "name": "revenuePerShareX18",
      "outputs": [
        {
          "internalType": "uint256",
          "name": "",
          "type": "uint256"
        }
      ],
      "stateMutability": "view",
      "type": "function"
    },
    {
      "inputs": [
        {
          "internalType": "uint256",
          "name": "percentComplete",
          "type": "uint256"
        },
        {
          "internalType": "bytes32",
          "name": "appraisalHash",
          "type": "bytes32"
        }
      ],
      "name": "submitAppraisal",
      "outputs": [],
      "stateMutability": "nonpayable",
      "type": "function"
    },
    {
      "inputs": [
        {
          "internalType": "uint256",
          "name": "amountUSDC",
          "type": "uint256"
        }
      ],
      "name": "submitSalesProceeds",
      "outputs": [],
      "stateMutability": "nonpayable",
      "type": "function"
    },
    {
      "inputs": [],
      "name": "token",
      "outputs": [
        {
          "internalType": "address",
          "name": "",
          "type": "address"
        }
      ],
      "stateMutability": "view",
      "type": "function"
    },
    {
      "inputs": [],
      "name": "totalDevWithdrawn",
      "outputs": [
        {
          "internalType": "uint256",
          "name": "",
          "type": "uint256"
        }
      ],
      "stateMutability": "view",
      "type": "function"
    },
    {
      "inputs": [],
      "name": "totalRaised",
      "outputs": [
        {
          "internalType": "uint256",
          "name": "",
          "type": "uint256"
        }
      ],
      "stateMutability": "view",
      "type": "function"
    },
    {
      "inputs": [
        {
          "internalType": "address",
          "name": "newOwner",
          "type": "address"
        }
      ],
      "name": "transferOwnership",
      "outputs": [],
      "stateMutability": "nonpayable",
      "type": "function"
    },
    {
      "inputs": [],
      "name": "unpause",
      "outputs": [],
      "stateMutability": "nonpayable",
      "type": "function"
    },
    {
      "inputs": [],
      "name": "usdc",
      "outputs": [
        {
          "internalType": "contract IERC20",
          "name": "",
          "type": "address"
        }
      ],
      "stateMutability": "view",
      "type": "function"
    },
    {
      "inputs": [
        {
          "internalType": "uint256",
          "name": "amount",
          "type": "uint256"
        }
      ],
      "name": "withdrawPhaseFunds",
      "outputs": [],
      "stateMutability": "nonpayable",
      "type": "function"
    },
    {
      "inputs": [
        {
          "internalType": "uint256",
          "name": "shares",
          "type": "uint256"
        }
      ],
      "name": "withdrawPrincipal",
      "outputs": [],
      "stateMutability": "nonpayable",
      "type": "function"
    },
    {
      "inputs": [],
      "name": "withdrawableDevFunds",
      "outputs": [
        {
          "internalType": "uint256",
          "name": "",
          "type": "uint256"
        }
      ],
      "stateMutability": "view",
      "type": "function"
    }
  ],
  "bytecode": "0x6101006040523480156200001257600080fd5b5060405162003f5138038062003f51833981016040819052620000359162000439565b896001600160a01b0381166200006657604051631e4fbdf760e01b8152600060048201526024015b60405180910390fd5b620000718162000223565b50600180556001600160a01b038916620000be5760405162461bcd60e51b815260206004820152600d60248201526c1d5cd918c81c995c5d5a5c9959609a1b60448201526064016200005d565b6001600160a01b03891660805260a086905260c085905260e0849052620000e9600384600662000273565b50620000f9600983600662000273565b5062000109600f82600662000273565b50600060015b600560ff8216116200015b57828160ff166006811062000133576200013362000523565b60200201516200014490836200054f565b91508062000152816200056b565b9150506200010f565b50612710811115620001a25760405162461bcd60e51b815260206004820152600f60248201526e636170732073756d203e203130302560881b60448201526064016200005d565b6015805461ffff1916905542602055604051899089903090620001c590620002b6565b620001d393929190620005bb565b604051809103906000f080158015620001f0573d6000803e3d6000fd5b50600280546001600160a01b0319166001600160a01b039290921691909117905550620005fd9950505050505050505050565b600080546001600160a01b038381166001600160a01b0319831681178455604051919092169283917f8be0079c531659141344cd1fd0a4f28419497f9722a3daafe3b4186f6b6457e09190a35050565b8260068101928215620002a4579160200282015b82811115620002a457825182559160200191906001019062000287565b50620002b2929150620002c4565b5090565b610d32806200321f83390190565b5b80821115620002b25760008155600101620002c5565b80516001600160a01b0381168114620002f357600080fd5b919050565b634e487b7160e01b600052604160045260246000fd5b60005b838110156200032b57818101518382015260200162000311565b50506000910152565b600082601f8301126200034657600080fd5b81516001600160401b0380821115620003635762000363620002f8565b604051601f8301601f19908116603f011681019082821181831017156200038e576200038e620002f8565b81604052838152866020858801011115620003a857600080fd5b620003bb8460208301602089016200030e565b9695505050505050565b600082601f830112620003d757600080fd5b60405160c081016001600160401b0381118282101715620003fc57620003fc620002f8565b6040528060c08401858111156200041257600080fd5b845b818110156200042e57805183526020928301920162000414565b509195945050505050565b6000806000806000806000806000806103208b8d0312156200045a57600080fd5b620004658b620002db565b99506200047560208c01620002db565b60408c01519099506001600160401b03808211156200049357600080fd5b620004a18e838f0162000334565b995060608d0151915080821115620004b857600080fd5b50620004c78d828e0162000334565b97505060808b0151955060a08b0151945060c08b01519350620004ee8c60e08d01620003c5565b9250620005008c6101a08d01620003c5565b9150620005128c6102608d01620003c5565b90509295989b9194979a5092959850565b634e487b7160e01b600052603260045260246000fd5b634e487b7160e01b600052601160045260246000fd5b8082018082111562000565576200056562000539565b92915050565b600060ff821660ff810362000584576200058462000539565b60010192915050565b60008151808452620005a78160208601602086016200030e565b601f01601f19169290920160200192915050565b606081526000620005d060608301866200058d565b8281036020840152620005e481866200058d565b91505060018060a01b0383166040830152949350505050565b60805160a05160c05160e051612b946200068b60003960008181610426015261157c015260008181610468015261135e0152600081816105cd015281816116710152611c2901526000818161037b0152818161070001528181610a2101528181610b6301528181610e82015281816110cc0152818161145e015281816116bc01526119430152612b946000f3fe608060405234801561001057600080fd5b50600436106102d65760003560e01c8063914278d011610182578063be9ba76d116100e9578063eb11ae8b116100a2578063f62a98cc1161007c578063f62a98cc14610648578063f6b0216c14610651578063fc0c546a14610664578063fd1b9dc61461067557600080fd5b8063eb11ae8b1461060a578063eb9f1b1d1461062d578063f2fde38b1461063557600080fd5b8063be9ba76d1461058c578063c1ff0f0e146105ac578063c5c4744c146105bf578063cebf3bb7146105c8578063e6aca06a146105ef578063eacb482b146105f757600080fd5b8063ac384a321161013b578063ac384a3214610537578063ad0c49f214610540578063b16dd6b314610549578063b69569421461055d578063b6b55f2514610570578063b752b3831461058357600080fd5b8063914278d0146104e457806396365d44146104f7578063a10954fe14610500578063a6afed9514610509578063a6e019b014610511578063aae5c3b81461052457600080fd5b80635ba893d811610241578063719ec6b1116101fa5780638456cb59116101d45780638456cb59146104a65780638471fafc146104ae5780638da5cb5b146104c05780638e12ebc7146104d157600080fd5b8063719ec6b11461046357806375c542241461048a5780637b9a2d5c1461049d57600080fd5b80635ba893d8146103f35780635c975abb146103fc578063658e28a41461040e57806365be97d114610421578063677ba3d314610448578063715018a61461045b57600080fd5b806328a8e35f1161029357806328a8e35f146103505780632eb375ea146103635780633e413bee146103765780633f4ba83a146103b55780634f24d20a146103bd57806353be9283146103d057600080fd5b8063055ad42e146102db57806306bbc3c3146102ff57806312d200cc146103145780631d52137e1461032b5780631e04ce76146103345780632458e76e1461033d575b600080fd5b6015546102e89060ff1681565b60405160ff90911681526020015b60405180910390f35b61031261030d366004612669565b610688565b005b61031d60195481565b6040519081526020016102f6565b61031d60205481565b61031d60225481565b61031261034b36600461269e565b6107f1565b61031d61035e366004612669565b610a52565b610312610371366004612669565b610a69565b61039d7f000000000000000000000000000000000000000000000000000000000000000081565b6040516001600160a01b0390911681526020016102f6565b610312610bca565b61031d6103cb36600461269e565b610bfe565b6015546103e39062010000900460ff1681565b60405190151581526020016102f6565b61031d60215481565b600054600160a01b900460ff166103e3565b61031261041c366004612669565b610c0f565b61031d7f000000000000000000000000000000000000000000000000000000000000000081565b6103126104563660046126c0565b610ee8565b61031261103b565b61031d7f000000000000000000000000000000000000000000000000000000000000000081565b610312610498366004612669565b61104d565b61031d601e5481565b610312611126565b6015546102e890610100900460ff1681565b6000546001600160a01b031661039d565b6103126104df36600461269e565b611158565b6103126104f23660046126fc565b611198565b61031d601c5481565b61031d601b5481565b6103126112da565b61031d61051f366004612669565b6112ea565b61031d61053236600461272f565b6112fa565b61031d601d5481565b61031d601a5481565b6015546103e3906301000000900460ff1681565b61031261056b36600461269e565b61138c565b61031261057e366004612669565b6114c0565b61031d601f5481565b61031d61059a36600461272f565b60186020526000908152604090205481565b6103126105ba366004612669565b611780565b61031d60165481565b61031d7f000000000000000000000000000000000000000000000000000000000000000081565b61031d6119b2565b61031d61060536600461269e565b611a15565b61031d61061836600461272f565b60ff1660009081526018602052604090205490565b6102e8600581565b61031261064336600461269e565b611a20565b61031d60175481565b61031d61065f366004612669565b611a5b565b6002546001600160a01b031661039d565b610312610683366004612796565b611a6b565b6000546001600160a01b031633146106bb5760405162461bcd60e51b81526004016106b290612841565b60405180910390fd5b6106c3611d56565b6106cb611d80565b6106d3611dab565b600081116106f35760405162461bcd60e51b81526004016106b290612863565b6107286001600160a01b037f000000000000000000000000000000000000000000000000000000000000000016333084611f95565b80601c600082825461073a919061289b565b9250508190555080601f6000828254610753919061289b565b9250508190555080601d600082825461076c919061289b565b9091555050601e54601654600091610783916128ae565b905080601d5411156107b157600081601d5461079f91906128ae565b601d83905590506107af81612002565b505b6040518281527f20ee97c9e69ab2210abc7769e9fdca436c4a09b118db8edea3a50ec5a8a527fe9060200160405180910390a1506107ee60018055565b50565b6107f9611d56565b610801611d80565b610809611dab565b60155462010000900460ff16801561082b57506015546301000000900460ff16155b6108645760405162461bcd60e51b815260206004820152600a6024820152691b9bdd0819985a5b195960b21b60448201526064016106b2565b6001600160a01b0381166108a55760405162461bcd60e51b81526020600482015260086024820152673130b2103ab9b2b960c11b60448201526064016106b2565b6002546040516370a0823160e01b81526001600160a01b03838116600483015260009216906370a0823190602401602060405180830381865afa1580156108f0573d6000803e3d6000fd5b505050506040513d601f19601f8201168201806040525081019061091491906128c1565b9050600081116109535760405162461bcd60e51b815260206004820152600a6024820152696e6f2062616c616e636560b01b60448201526064016106b2565b600254604051632770a7eb60e21b81526001600160a01b0384811660048301526024820184905290911690639dc29fac90604401600060405180830381600087803b1580156109a157600080fd5b505af11580156109b5573d6000803e3d6000fd5b5050505080601c5410156109db5760405162461bcd60e51b81526004016106b2906128da565b80601c60008282546109ed91906128ae565b9091555050601f54811115610a03576000610a11565b80601f54610a1191906128ae565b601f55610a486001600160a01b037f00000000000000000000000000000000000000000000000000000000000000001683836120c0565b506107ee60018055565b600f8160068110610a6257600080fd5b0154905081565b610a71611d56565b610a79611d80565b610a81611dab565b6000610a8c336120f6565b9050600082118015610a9e5750808211155b610ad75760405162461bcd60e51b815260206004820152600a60248201526918985908185b5bdd5b9d60b21b60448201526064016106b2565b3360009081526025602052604081208054849290610af690849061289b565b9091555050601c54821115610b1d5760405162461bcd60e51b81526004016106b2906128da565b81601c6000828254610b2f91906128ae565b9091555050601f54821115610b45576000610b53565b81601f54610b5391906128ae565b601f55610b8a6001600160a01b037f00000000000000000000000000000000000000000000000000000000000000001633846120c0565b60405182815233907ff9984c8173c4b4ff9cc454f76ed19c053f4490ccb224fd9ddffeb4ef4bea3530906020015b60405180910390a2506107ee60018055565b6000546001600160a01b03163314610bf45760405162461bcd60e51b81526004016106b290612841565b610bfc612236565b565b6000610c09826120f6565b92915050565b610c17611d56565b610c1f611d80565b610c27611dab565b6015546301000000900460ff16610c505760405162461bcd60e51b81526004016106b290612902565b60008111610c8b5760405162461bcd60e51b815260206004820152600860248201526707368617265733d360c41b60448201526064016106b2565b6002546040516370a0823160e01b815233600482015282916001600160a01b0316906370a0823190602401602060405180830381865afa158015610cd3573d6000803e3d6000fd5b505050506040513d601f19601f82011682018060405250810190610cf791906128c1565b1015610d3b5760405162461bcd60e51b8152602060048201526013602482015272696e73756666696369656e742073686172657360681b60448201526064016106b2565b80601d541015610d865760405162461bcd60e51b81526020600482015260166024820152751a5b9cdd59999a58da595b9d081c1c9a5b98da5c185b60521b60448201526064016106b2565b600254604051632770a7eb60e21b8152336004820152602481018390526001600160a01b0390911690639dc29fac90604401600060405180830381600087803b158015610dd257600080fd5b505af1158015610de6573d6000803e3d6000fd5b5050505080601d6000828254610dfc91906128ae565b9250508190555080601e6000828254610e15919061289b565b9091555050601c54811115610e3c5760405162461bcd60e51b81526004016106b2906128da565b80601c6000828254610e4e91906128ae565b9091555050601f54811115610e64576000610e72565b80601f54610e7291906128ae565b601f55610ea96001600160a01b037f00000000000000000000000000000000000000000000000000000000000000001633836120c0565b60405181815233907f2e6100b89b43378c0aeb062f2df0cfaa63e4437abab6844b441f8e47cb31bec3906020015b60405180910390a26107ee60018055565b6002546001600160a01b03163314610f2f5760405162461bcd60e51b815260206004820152600a60248201526937b7363c903a37b5b2b760b11b60448201526064016106b2565b80600003610f3c57505050565b600081602154610f4c919061292c565b9050600082602254610f5e919061292c565b90506001600160a01b03851615610fca576001600160a01b03851660009081526023602052604081208054849290610f97908490612943565b90915550506001600160a01b03851660009081526024602052604081208054839290610fc4908490612943565b90915550505b6001600160a01b03841615611034576001600160a01b0384166000908152602360205260408120805484929061100190849061296b565b90915550506001600160a01b0384166000908152602460205260408120805483929061102e90849061296b565b90915550505b5050505050565b61104361228b565b610bfc60006122b8565b6000546001600160a01b031633146110775760405162461bcd60e51b81526004016106b290612841565b61107f611d56565b611087611d80565b600081116110a75760405162461bcd60e51b81526004016106b290612863565b80601b60008282546110b9919061289b565b909155506110f490506001600160a01b037f000000000000000000000000000000000000000000000000000000000000000016333084611f95565b60405181815233907f70859294f72c29c0fb08dcdd44e152b4bf107c94775c4e5a542610e3d7538f5490602001610ed7565b6000546001600160a01b031633146111505760405162461bcd60e51b81526004016106b290612841565b610bfc612308565b60405162461bcd60e51b81526020600482015260156024820152741d5cd9481dda5d1a191c985dd41c9a5b98da5c185b605a1b60448201526064016106b2565b6000546001600160a01b031633146111c25760405162461bcd60e51b81526004016106b290612841565b6111ca611d80565b6111d2611dab565b60155460ff166005146112155760405162461bcd60e51b815260206004820152600b60248201526a6e6f74207068617365203560a81b60448201526064016106b2565b606482111561124f5760405162461bcd60e51b81526004016106b29060208082526004908201526303e3130360e41b604082015260600190565b6019548210156112935760405162461bcd60e51b815260206004820152600f60248201526e1b5d5cdd081899480f8f481b185cdd608a1b60448201526064016106b2565b6019829055601a81905560408051838152602081018390527f49d00690d82dc37b8ab62cb7c34d5e9e1875b66427e1be943a05e463f4b91205910160405180910390a15050565b6112e2611d80565b610bfc611dab565b60098160068110610a6257600080fd5b6000600560ff8316111561133d5760405162461bcd60e51b815260206004820152600a602482015269706861736520302e2e3560b01b60448201526064016106b2565b612710600f8360ff166006811061135657611356612992565b0154611382907f000000000000000000000000000000000000000000000000000000000000000061292c565b610c0991906129be565b611394611d56565b61139c611d80565b6113a4611dab565b60006113af8261234b565b9050600081116113ea5760405162461bcd60e51b81526004016106b2906020808252600490820152636e6f6e6560e01b604082015260600190565b6001600160a01b0382166000908152602660205260408120805483929061141290849061289b565b9091555050601c548111156114395760405162461bcd60e51b81526004016106b2906128da565b80601c600082825461144b91906128ae565b9091555061148590506001600160a01b037f00000000000000000000000000000000000000000000000000000000000000001683836120c0565b816001600160a01b03167fc15f451120b13b6b40c6ad6203614ab3088308bef9150c0d6f46ea79bf46422482604051610bb891815260200190565b6114c8611d56565b6114d0611d80565b6114d8611dab565b60155460ff166004190161152e5760405162461bcd60e51b815260206004820152601a60248201527f6465706f7369747320636c6f73656420696e207068617365203500000000000060448201526064016106b2565b60155462010000900460ff16801561155057506015546301000000900460ff16155b1561156d5760405162461bcd60e51b81526004016106b290612902565b60155460ff166000036115f1577f000000000000000000000000000000000000000000000000000000000000000042111580156115b3575060155462010000900460ff16155b6115f15760405162461bcd60e51b815260206004820152600f60248201526e199d5b991c985a5cd948195b991959608a1b60448201526064016106b2565b600081116116115760405162461bcd60e51b81526004016106b290612863565b8060166000828254611623919061289b565b9250508190555080601c600082825461163c919061289b565b9250508190555080601f6000828254611655919061289b565b90915550506015546301000000900460ff1615801561169657507f000000000000000000000000000000000000000000000000000000000000000060165410155b156116af576015805463ff000000191663010000001790555b6116e46001600160a01b037f000000000000000000000000000000000000000000000000000000000000000016333084611f95565b6002546040516340c10f1960e01b8152336004820152602481018390526001600160a01b03909116906340c10f1990604401600060405180830381600087803b15801561173057600080fd5b505af1158015611744573d6000803e3d6000fd5b505060408051848152602081018590523393507f90890809c654f11d6e72a28fa60149770a0d11ec6c92319d6ceb2bb0a4ea1a15925001610ed7565b6000546001600160a01b031633146117aa5760405162461bcd60e51b81526004016106b290612841565b6117b2611d56565b6117ba611d80565b6117c2611dab565b6015546301000000900460ff166117eb5760405162461bcd60e51b81526004016106b290612902565b6000811161180b5760405162461bcd60e51b81526004016106b290612863565b6000611815612481565b90508082601754611826919061289b565b11156118635760405162461bcd60e51b815260206004820152600c60248201526b65786365656473206361707360a01b60448201526064016106b2565b81601c5410156118a95760405162461bcd60e51b81526020600482015260116024820152701a5b9cdd59999a58da595b9d081c1bdbdb607a1b60448201526064016106b2565b81601760008282546118bb919061289b565b90915550600090506118cb61253b565b905060018160ff16101580156118e55750600560ff821611155b156119125760ff81166000908152601860205260408120805485929061190c90849061289b565b90915550505b82601c600082825461192491906128ae565b909155505060005461196a906001600160a01b03166001600160a01b037f00000000000000000000000000000000000000000000000000000000000000001690856120c0565b8060ff167f940bcb002dc18e6a1837bac302a6a2581c5d2ba0226f6cea61737fc935ca76798460405161199f91815260200190565b60405180910390a250506107ee60018055565b6015546000906301000000900460ff166119cc5750600090565b60006119d6612481565b905060175481116119e957600091505090565b6000601754826119f991906128ae565b9050601c548110611a0c57601c54611a0e565b805b9250505090565b6000610c098261234b565b611a2861228b565b6001600160a01b038116611a5257604051631e4fbdf760e01b8152600060048201526024016106b2565b6107ee816122b8565b60038160068110610a6257600080fd5b6000546001600160a01b03163314611a955760405162461bcd60e51b81526004016106b290612841565b611a9d611d80565b611aa5611dab565b600560ff88161115611ae95760405162461bcd60e51b815260206004820152600d60248201526c696e76616c696420706861736560981b60448201526064016106b2565b60155460ff888116911614611b345760405162461bcd60e51b81526020600482015260116024820152706e6f742063757272656e7420706861736560781b60448201526064016106b2565b84611b715760405162461bcd60e51b815260206004820152600d60248201526c191bd8dcc81c995c5d5a5c9959609a1b60448201526064016106b2565b8483148015611b7f57508481145b611bc25760405162461bcd60e51b81526020600482015260146024820152730c8dec6e640d8cadccee8d040dad2e6dac2e8c6d60631b60448201526064016106b2565b8660ff167f45416f56c1fe97d8b51056013471bd65699f72e70e5d48af0ab4dcc9f1b9e247878787878787604051611bff96959493929190612a92565b60405180910390a28660ff16600003611c7a576015546301000000900460ff16158015611c4e57507f000000000000000000000000000000000000000000000000000000000000000060165410155b15611c67576015805463ff000000191663010000001790555b6015805461ffff19166001179055611d4d565b6015805460ff808a166101000261ff00198316811790935560059281169116171015611cd2576015805460019190600090611cb990849060ff16612af8565b92506101000a81548160ff021916908360ff1602179055505b8660ff166004148015611cee575060155462010000900460ff16155b15611d4d576015805462ff000019166201000017908190556040517fb52b66827b1931e8f75b5cfc0f0ac02ebb32fa863d0000c22bb926eb57c0886291611d4491630100000090910460ff161515815260200190565b60405180910390a15b50505050505050565b600260015403611d7957604051633ee5aeb560e01b815260040160405180910390fd5b6002600155565b600054600160a01b900460ff1615610bfc5760405163d93c066560e01b815260040160405180910390fd5b6015546301000000900460ff168015611dcc5750601554600160ff90911610155b611dd65742602055565b60205442908111611de45750565b600060205482611df491906128ae565b602083905590506000611e056125ab565b9050801580611e145750601f54155b15611e1e57505050565b6000611e306301e1338061271061292c565b8383601f54611e3f919061292c565b611e49919061292c565b611e5391906129be565b905080600003611e635750505050565b80601b541015611ea85760405162461bcd60e51b815260206004820152601060248201526f1c995cd95c9d994819195c1b195d195960821b60448201526064016106b2565b80601b6000828254611eba91906128ae565b9250508190555080601c6000828254611ed3919061289b565b9250508190555080601f6000828254611eec919061289b565b9091555050600254604080516318160ddd60e01b815290516000926001600160a01b0316916318160ddd9160048083019260209291908290030181865afa158015611f3b573d6000803e3d6000fd5b505050506040513d601f19601f82011682018060405250810190611f5f91906128c1565b905080156110345780611f7a670de0b6b3a76400008461292c565b611f8491906129be565b6021600082825461102e919061289b565b6040516001600160a01b038481166024830152838116604483015260648201839052611ffc9186918216906323b872dd906084015b604051602081830303815290604052915060e01b6020820180516001600160e01b0383818316178352505050506125ce565b50505050565b8060000361200d5750565b600254604080516318160ddd60e01b815290516000926001600160a01b0316916318160ddd9160048083019260209291908290030181865afa158015612057573d6000803e3d6000fd5b505050506040513d601f19601f8201168201806040525081019061207b91906128c1565b905080600003612089575050565b8061209c670de0b6b3a76400008461292c565b6120a691906129be565b602260008282546120b7919061289b565b90915550505050565b6040516001600160a01b038381166024830152604482018390526120f191859182169063a9059cbb90606401611fca565b505050565b6002546040516370a0823160e01b81526001600160a01b03838116600483015260009283929116906370a0823190602401602060405180830381865afa158015612144573d6000803e3d6000fd5b505050506040513d601f19601f8201168201806040525081019061216891906128c1565b90506000670de0b6b3a764000060215483612183919061292c565b61218d91906129be565b6001600160a01b038516600090815260236020526040812054919250906121bd90670de0b6b3a764000090612b11565b6121c79083612943565b9050600081136121dc57506000949350505050565b6001600160a01b038516600090815260256020526040902054819081116122095750600095945050505050565b6001600160a01b03861660009081526025602052604090205461222c90826128ae565b9695505050505050565b61223e61263f565b6000805460ff60a01b191690557f5db9ee0a495bf2e6ff9c91a7834c1ba4fdd244a5e8aa4e537bd38aeae4b073aa335b6040516001600160a01b03909116815260200160405180910390a1565b6000546001600160a01b03163314610bfc5760405163118cdaa760e01b81523360048201526024016106b2565b600080546001600160a01b038381166001600160a01b0319831681178455604051919092169283917f8be0079c531659141344cd1fd0a4f28419497f9722a3daafe3b4186f6b6457e09190a35050565b612310611d80565b6000805460ff60a01b1916600160a01b1790557f62e78cea01bee320cd4e420270b5ea74000d11b0c9f74754ebdbfc544b05a25861226e3390565b6002546040516370a0823160e01b81526001600160a01b03838116600483015260009283929116906370a0823190602401602060405180830381865afa158015612399573d6000803e3d6000fd5b505050506040513d601f19601f820116820180604052508101906123bd91906128c1565b90506000670de0b6b3a7640000602254836123d8919061292c565b6123e291906129be565b6001600160a01b0385166000908152602460205260408120549192509061241290670de0b6b3a764000090612b11565b61241c9083612943565b90506000811361243157506000949350505050565b6001600160a01b0385166000908152602660205260409020548190811161245e5750600095945050505050565b6001600160a01b03861660009081526026602052604090205461222c90826128ae565b6015546000908190610100900460ff1660015b60048160ff16116124d4578160ff168160ff16116124c2576124b5816112fa565b6124bf908461289b565b92505b806124cc81612b3f565b915050612494565b5060006124e160056112fa565b905060058260ff16106124ff576124f8818461289b565b9250612533565b60155460ff166005036125335760646019548261251c919061292c565b61252691906129be565b612530908461289b565b92505b509092915050565b60155460009060ff16600514801561255e5750601554600561010090910460ff16105b156125695750600590565b601554600161010090910460ff16108015906125915750601554600561010090910460ff1611155b156125a55750601554610100900460ff1690565b50600090565b60155460009060039060ff16600681106125c7576125c7612992565b0154905090565b600080602060008451602086016000885af1806125f1576040513d6000823e3d81fd5b50506000513d91508115612609578060011415612616565b6001600160a01b0384163b155b15611ffc57604051635274afe760e01b81526001600160a01b03851660048201526024016106b2565b600054600160a01b900460ff16610bfc57604051638dfc202b60e01b815260040160405180910390fd5b60006020828403121561267b57600080fd5b5035919050565b80356001600160a01b038116811461269957600080fd5b919050565b6000602082840312156126b057600080fd5b6126b982612682565b9392505050565b6000806000606084860312156126d557600080fd5b6126de84612682565b92506126ec60208501612682565b9150604084013590509250925092565b6000806040838503121561270f57600080fd5b50508035926020909101359150565b803560ff8116811461269957600080fd5b60006020828403121561274157600080fd5b6126b98261271e565b60008083601f84011261275c57600080fd5b50813567ffffffffffffffff81111561277457600080fd5b6020830191508360208260051b850101111561278f57600080fd5b9250929050565b60008060008060008060006080888a0312156127b157600080fd5b6127ba8861271e565b9650602088013567ffffffffffffffff808211156127d757600080fd5b6127e38b838c0161274a565b909850965060408a01359150808211156127fc57600080fd5b6128088b838c0161274a565b909650945060608a013591508082111561282157600080fd5b5061282e8a828b0161274a565b989b979a50959850939692959293505050565b602080825260089082015267646576206f6e6c7960c01b604082015260600190565b6020808252600890820152670616d6f756e743d360c41b604082015260600190565b634e487b7160e01b600052601160045260246000fd5b80820180821115610c0957610c09612885565b81810381811115610c0957610c09612885565b6000602082840312156128d357600080fd5b5051919050565b6020808252600e908201526d706f6f6c20756e646572666c6f7760901b604082015260600190565b60208082526010908201526f199d5b991c985a5cd94819985a5b195960821b604082015260600190565b8082028115828204841417610c0957610c09612885565b808201828112600083128015821682158216171561296357612963612885565b505092915050565b818103600083128015838313168383128216171561298b5761298b612885565b5092915050565b634e487b7160e01b600052603260045260246000fd5b634e487b7160e01b600052601260045260246000fd5b6000826129cd576129cd6129a8565b500490565b81835281816020850137506000828201602090810191909152601f909101601f19169091010190565b6000838385526020808601955060208560051b8301018460005b87811015612a8557848303601f19018952813536889003601e19018112612a3b57600080fd5b8701848101903567ffffffffffffffff811115612a5757600080fd5b803603821315612a6657600080fd5b612a718582846129d2565b9a86019a9450505090830190600101612a15565b5090979650505050505050565b606081526000612aa660608301888a6129fb565b82810360208401528581526001600160fb1b03861115612ac557600080fd5b8560051b808860208401370182810360209081016040850152612aeb90820185876129fb565b9998505050505050505050565b60ff8181168382160190811115610c0957610c09612885565b600082612b2057612b206129a8565b600160ff1b821460001984141615612b3a57612b3a612885565b500590565b600060ff821660ff8103612b5557612b55612885565b6001019291505056fea2646970667358221220514ed33a662941fa1a445a60d836eab9469c53e82150e1d295c17f3eb288cb8064736f6c6343000818003360a06040523480156200001157600080fd5b5060405162000d3238038062000d32833981016040819052620000349162000181565b828260036200004483826200029f565b5060046200005382826200029f565b5050506001600160a01b038116620000a45760405162461bcd60e51b815260206004820152601060248201526f1c1c9bda9958dd081c995c5d5a5c995960821b604482015260640160405180910390fd5b6001600160a01b0316608052506200036b9050565b634e487b7160e01b600052604160045260246000fd5b600082601f830112620000e157600080fd5b81516001600160401b0380821115620000fe57620000fe620000b9565b604051601f8301601f19908116603f01168101908282118183101715620001295762000129620000b9565b81604052838152602092508660208588010111156200014757600080fd5b600091505b838210156200016b57858201830151818301840152908201906200014c565b6000602085830101528094505050505092915050565b6000806000606084860312156200019757600080fd5b83516001600160401b0380821115620001af57600080fd5b620001bd87838801620000cf565b94506020860151915080821115620001d457600080fd5b50620001e386828701620000cf565b604086015190935090506001600160a01b03811681146200020357600080fd5b809150509250925092565b600181811c908216806200022357607f821691505b6020821081036200024457634e487b7160e01b600052602260045260246000fd5b50919050565b601f8211156200029a576000816000526020600020601f850160051c81016020861015620002755750805b601f850160051c820191505b81811015620002965782815560010162000281565b5050505b505050565b81516001600160401b03811115620002bb57620002bb620000b9565b620002d381620002cc84546200020e565b846200024a565b602080601f8311600181146200030b5760008415620002f25750858301515b600019600386901b1c1916600185901b17855562000296565b600085815260208120601f198616915b828110156200033c578886015182559484019460019091019084016200031b565b50858210156200035b5787850151600019600388901b60f8161c191681555b5050505050600190811b01905550565b6080516109966200039c600039600081816101d8015281816102ed01528181610376015261065401526109966000f3fe608060405234801561001057600080fd5b50600436106100b45760003560e01c806370a082311161007157806370a082311461014357806395d89b411461016c5780639dc29fac14610174578063a9059cbb14610187578063dd62ed3e1461019a578063f60ca60d146101d357600080fd5b806306fdde03146100b9578063095ea7b3146100d757806318160ddd146100fa57806323b872dd1461010c578063313ce5671461011f57806340c10f191461012e575b600080fd5b6100c1610212565b6040516100ce91906107df565b60405180910390f35b6100ea6100e536600461084a565b6102a4565b60405190151581526020016100ce565b6002545b6040519081526020016100ce565b6100ea61011a366004610874565b6102be565b604051600681526020016100ce565b61014161013c36600461084a565b6102e2565b005b6100fe6101513660046108b0565b6001600160a01b031660009081526020819052604090205490565b6100c161035c565b61014161018236600461084a565b61036b565b6100ea61019536600461084a565b6103dc565b6100fe6101a83660046108d2565b6001600160a01b03918216600090815260016020908152604080832093909416825291909152205490565b6101fa7f000000000000000000000000000000000000000000000000000000000000000081565b6040516001600160a01b0390911681526020016100ce565b60606003805461022190610905565b80601f016020809104026020016040519081016040528092919081815260200182805461024d90610905565b801561029a5780601f1061026f5761010080835404028352916020019161029a565b820191906000526020600020905b81548152906001019060200180831161027d57829003601f168201915b5050505050905090565b6000336102b28185856103ea565b60019150505b92915050565b6000336102cc8582856103fc565b6102d785858561047b565b506001949350505050565b336001600160a01b037f0000000000000000000000000000000000000000000000000000000000000000161461034e5760405162461bcd60e51b815260206004820152600c60248201526b1bdb9b1e481c1c9bda9958dd60a21b60448201526064015b60405180910390fd5b61035882826104da565b5050565b60606004805461022190610905565b336001600160a01b037f000000000000000000000000000000000000000000000000000000000000000016146103d25760405162461bcd60e51b815260206004820152600c60248201526b1bdb9b1e481c1c9bda9958dd60a21b6044820152606401610345565b6103588282610510565b6000336102b281858561047b565b6103f78383836001610546565b505050565b6001600160a01b03838116600090815260016020908152604080832093861683529290522054600019811015610475578181101561046657604051637dc7a0d960e11b81526001600160a01b03841660048201526024810182905260448101839052606401610345565b61047584848484036000610546565b50505050565b6001600160a01b0383166104a557604051634b637e8f60e11b815260006004820152602401610345565b6001600160a01b0382166104cf5760405163ec442f0560e01b815260006004820152602401610345565b6103f783838361061b565b6001600160a01b0382166105045760405163ec442f0560e01b815260006004820152602401610345565b6103586000838361061b565b6001600160a01b03821661053a57604051634b637e8f60e11b815260006004820152602401610345565b6103588260008361061b565b6001600160a01b0384166105705760405163e602df0560e01b815260006004820152602401610345565b6001600160a01b03831661059a57604051634a1406b160e11b815260006004820152602401610345565b6001600160a01b038085166000908152600160209081526040808320938716835292905220829055801561047557826001600160a01b0316846001600160a01b03167f8c5be1e5ebec7d5bd14f71427d1e84f3dd0314c0f7b2291e5b200ac8c7c3b9258460405161060d91815260200190565b60405180910390a350505050565b6106268383836106b5565b60405163677ba3d360e01b81526001600160a01b0384811660048301528381166024830152604482018390527f0000000000000000000000000000000000000000000000000000000000000000169063677ba3d390606401600060405180830381600087803b15801561069857600080fd5b505af11580156106ac573d6000803e3d6000fd5b50505050505050565b6001600160a01b0383166106e05780600260008282546106d5919061093f565b909155506107529050565b6001600160a01b038316600090815260208190526040902054818110156107335760405163391434e360e21b81526001600160a01b03851660048201526024810182905260448101839052606401610345565b6001600160a01b03841660009081526020819052604090209082900390555b6001600160a01b03821661076e5760028054829003905561078d565b6001600160a01b03821660009081526020819052604090208054820190555b816001600160a01b0316836001600160a01b03167fddf252ad1be2c89b69c2b068fc378daa952ba7f163c4a11628f55a4df523b3ef836040516107d291815260200190565b60405180910390a3505050565b60006020808352835180602085015260005b8181101561080d578581018301518582016040015282016107f1565b506000604082860101526040601f19601f8301168501019250505092915050565b80356001600160a01b038116811461084557600080fd5b919050565b6000806040838503121561085d57600080fd5b6108668361082e565b946020939093013593505050565b60008060006060848603121561088957600080fd5b6108928461082e565b92506108a06020850161082e565b9150604084013590509250925092565b6000602082840312156108c257600080fd5b6108cb8261082e565b9392505050565b600080604083850312156108e557600080fd5b6108ee8361082e565b91506108fc6020840161082e565b90509250929050565b600181811c9082168061091957607f821691505b60208210810361093957634e487b7160e01b600052602260045260246000fd5b50919050565b808201808211156102b857634e487b7160e01b600052601160045260246000fdfea2646970667358221220d65f4916e227b4f0dfed07b63fc603d5d81242d97ac12a27abaf4785a9041be764736f6c63430008180033",
  "linkReferences": {},
  "deployedLinkReferences": {}
}