{
  "_format": "hh-sol-artifact-1",
  "contractName": "ProjectRegistry",
  "sourceName": "src/core/ProjectRegistry.sol",
  "abi": [
    {
      "inputs": [],
      "stateMutability": "nonpayable",
      "type": "constructor"
    },
    {
      "anonymous": false,
      "inputs": [
        {
          "indexed": true,
          "internalType": "address",
          "name": "project",
          "type": "address"
        },
        {
          "indexed": true,
          "internalType": "address",
          "name": "token",
          "type": "address"
        },
        {
          "indexed": true,
          "internalType": "address",
          "name": "creator",
          "type": "address"
        },
        {
          "indexed": false,
          "internalType": "string",
          "name": "metadataURI",
          "type": "string"
        }
      ],
      "name": "ProjectCreated",
      "type": "event"
    },
    {
      "inputs": [
        {
          "internalType": "address",
          "name": "stablecoin",
          "type": "address"
        },
        {
          "internalType": "uint256",
          "name": "minRaise",
          "type": "uint256"
        },
        {
          "internalType": "uint256",
          "name": "maxRaise",
          "type": "uint256"
        },
        {
          "internalType": "uint256",
          "name": "fundraiseDeadline",
          "type": "uint256"
        },
        {
          "internalType": "uint256[2]",
          "name": "bracketMinAPR",
          "type": "uint256[2]"
        },
        {
          "internalType": "uint256[2]",
          "name": "bracketMaxAPR",
          "type": "uint256[2]"
        },
        {
          "internalType": "string",
          "name": "metadataURI",
          "type": "string"
        }
      ],
      "name": "createProject",
      "outputs": [
        {
          "internalType": "address",
          "name": "projectAddress",
          "type": "address"
        },
        {
          "internalType": "address",
          "name": "tokenAddress",
          "type": "address"
        }
      ],
      "stateMutability": "nonpayable",
      "type": "function"
    },
    {
      "inputs": [
        {
          "internalType": "address",
          "name": "stablecoin",
          "type": "address"
        },
        {
          "internalType": "string",
          "name": "tokenName",
          "type": "string"
        },
        {
          "internalType": "string",
          "name": "tokenSymbol",
          "type": "string"
        },
        {
          "internalType": "uint256",
          "name": "minRaise",
          "type": "uint256"
        },
        {
          "internalType": "uint256",
          "name": "maxRaise",
          "type": "uint256"
        },
        {
          "internalType": "uint256",
          "name": "fundraiseDeadline",
          "type": "uint256"
        },
        {
          "internalType": "uint256[2]",
          "name": "bracketMinAPR",
          "type": "uint256[2]"
        },
        {
          "internalType": "uint256[2]",
          "name": "bracketMaxAPR",
          "type": "uint256[2]"
        },
        {
          "internalType": "string",
          "name": "metadataURI",
          "type": "string"
        }
      ],
      "name": "createProjectWithTokenMeta",
      "outputs": [
        {
          "internalType": "address",
          "name": "projectAddress",
          "type": "address"
        },
        {
          "internalType": "address",
          "name": "tokenAddress",
          "type": "address"
        }
      ],
      "stateMutability": "nonpayable",
      "type": "function"
    },
    {
      "inputs": [],
      "name": "projectCount",
      "outputs": [
        {
          "internalType": "uint256",
          "name": "",
          "type": "uint256"
        }
      ],
      "stateMutability": "view",
      "type": "function"
    }
  ],
  "bytecode": "0x608080604052346100165761464b908161001c8239f35b600080fdfe60808060405260043610156200001457600080fd5b60003560e01c90816336fbad261462000607575080638b70e34014620003835763a277d731146200004457600080fd5b346200037e576103203660031901126200037e576200006262000624565b60243567ffffffffffffffff81116200037e57620000859036906004016200063b565b9160443567ffffffffffffffff81116200037e57620000a99036906004016200063b565b92909336610184116200037e5736610244116200037e576103043681116200037e573567ffffffffffffffff81116200037e57620000ec9036906004016200063b565b959094620001056001600160a01b03861615156200066c565b8215158062000374575b156200033d576064351515806200032e575b6200012c90620006b9565b6200013b4260a43511620006f9565b60005460018101811162000318576001016000556040519485613cba81011067ffffffffffffffff613cba8801111762000302578594620001c794620001b092613cba6200095c893933613cba89019081526001600160a01b0391909116602082015261032060408201819052019162000803565b91613cba850183036060613cba8701015262000803565b6064356080613cba8401015260843560a0613cba8401015260a43560c0613cba8401015260c060c460e0613cba8501013760c06101846101a0613cba8501013760c0610244610260613cba8501013703906000f08015620002f657604051637e062a3560e11b8152926001600160a01b03919091169190602084600481865afa938415620002f657600094620002be575b50827f584523b70090fce871c6942124002b6ecd61215c415e8e7e64897043587190f060405160208152806200029e339660018060a01b038a1696602084019162000803565b0390a4604080516001600160a01b03928316815292909116602083015290f35b620002e691945060203d602011620002ee575b620002dd818362000756565b810190620007e2565b923862000258565b503d620002d1565b6040513d6000823e3d90fd5b634e487b7160e01b600052604160045260246000fd5b634e487b7160e01b600052601160045260246000fd5b50606435608435101562000121565b60405162461bcd60e51b815260206004820152600f60248201526e6e616d652f73796d626f6c2072657160881b6044820152606490fd5b508015156200010f565b600080fd5b346200037e576102e03660031901126200037e57620003a162000624565b61014490604435906024356064353685116200037e57610204933685116200037e576102c43681116200037e57359267ffffffffffffffff938481116200037e57620003f29036906004016200063b565b9790966001600160a01b03968716936200040e8515156200066c565b83151580620005fc575b6200042390620006b9565b62000430428711620006f9565b600054966001880180981162000318578774436f726e657273746f6e652050726f6a656374202360581b98600055620004c06200049b62000494620004758462000824565b604051620004838162000739565b6015815260209d8e82015262000914565b9262000824565b604051620004a98162000739565b6005815264634147472d60d81b8c82015262000914565b9460405198613cba94858b01948b86109086111762000302576200051d60c0986200050e8a968f8f9e8f9b6102609c6200095c903961032091338c528b01528060408b0152890190620007bb565b908782036060890152620007bb565b98608086015260a08501528284015281608460e08501376101a0830137013703906000f08015620002f65782169260405194637e062a3560e11b86528286600481885afa958615620002f657600096620005b2575b5084917f584523b70090fce871c6942124002b6ecd61215c415e8e7e64897043587190f0916200029e60405192839287845233988b169784019162000803565b7f584523b70090fce871c6942124002b6ecd61215c415e8e7e64897043587190f091965091620005f28693853d8711620002ee57620002dd818362000756565b9691509162000572565b508381101562000418565b346200037e5760003660031901126200037e576020906000548152f35b600435906001600160a01b03821682036200037e57565b9181601f840112156200037e5782359167ffffffffffffffff83116200037e57602083818601950101116200037e57565b156200067457565b60405162461bcd60e51b815260206004820152601860248201527f737461626c65636f696e206164647220726571756972656400000000000000006044820152606490fd5b15620006c157565b60405162461bcd60e51b815260206004820152601060248201526f62616420726169736520626f756e647360801b6044820152606490fd5b156200070157565b60405162461bcd60e51b815260206004820152601060248201526f191958591b1a5b99481a5b881c185cdd60821b6044820152606490fd5b6040810190811067ffffffffffffffff8211176200030257604052565b90601f8019910116810190811067ffffffffffffffff8211176200030257604052565b67ffffffffffffffff81116200030257601f01601f191660200190565b60005b838110620007aa5750506000910152565b818101518382015260200162000799565b90602091620007d68151809281855285808601910162000796565b601f01601f1916010190565b908160209103126200037e57516001600160a01b03811681036200037e5790565b908060209392818452848401376000828201840152601f01601f1916010190565b8015620008f457600081805b620008da5750620008418162000779565b9062000851604051928362000756565b808252601f19620008628262000779565b013660208401375b80928015620008d357600019820191821162000318578193600a926030908484068201809211620003185785511115620008bd5760f81b6001600160f81b03191660001a908401601f015304916200086a565b634e487b7160e01b600052603260045260246000fd5b5050905090565b90600019811462000318576001600a910191048062000830565b50604051620009038162000739565b60018152600360fc1b602082015290565b60206200095891604051938162000935869351809286808701910162000796565b82016200094b8251809386808501910162000796565b0103808452018262000756565b9056fe6040610100815234620004ca5762003cba9081380380620000208162000505565b938439820161032083820312620004ca576200003c836200052b565b906020906200004d8286016200052b565b858501516001600160401b039390848111620004ca57836200007191890162000565565b90606088015195858711620004ca57848997880190620000919162000565565b9260808801519660a08901519360c08a015197808060e08d0190620000b691620005bc565b9b6101a00190620000c791620005bc565b9c6102600190620000d891620005bc565b976001600160a01b03948516958615620004b257600080546001600160a01b03198082168a1783558f51929d909990929189167f8be0079c531659141344cd1fd0a4f28419497f9722a3daafe3b4186f6b6457e08f80a38760019b8c80551690811562000470575060805260a05260c05260e05289878a5b600681106200045c575050508b878a5b60068110620004485750505087878a5b600681106200043457505050889587805b620003df575b50612710809711620003a9576015805461ffff191690554282558b5193610ea080860194851186861017620003955791620001d986959492620001e79462002e1a883960608652606086019062000652565b918483039085015262000652565b908b30910152039087f080156200038b57169060025416176002556200020c620004cf565b9360c036863780835b6200031e575b877f327a84848d6ab6d6b02be0459cceb4a59c065199948d8658b70d3c63cdd6baef61030089620002828a620002768f6200026a8d916200025f8a51809862000679565b60c087019062000679565b61018085019062000679565b61024083019062000679565ba1516127769081620006a4823960805181818161049501528181610624015281816107b101528181610a3201528181610e47015281816110f1015281816113c7015281816115bc015261182b015260a0518181816104f9015281816108900152611ed8015260c051818181610eb401528181611c19015281816125a20152612667015260e0518181816108bd01528181610f8901526117210152f35b60ff811660058111620003845760c0516200033a82886200062a565b519081810291818304149015171562000370579062000362856200036994930491896200062a565b5262000602565b8362000215565b634e487b7160e01b84526011600452602484fd5b506200021b565b88513d88823e3d90fd5b634e487b7160e01b8c52604160045260248cfd5b8b5162461bcd60e51b815260048101839052600f60248201526e636170732073756d203e203130302560881b6044820152606490fd5b9660ff8816600581116200042c57620003f9908b6200062a565b51810180911162000418576200041189919862000602565b9062000181565b634e487b7160e01b8b52601160045260248bfd5b509662000187565b83835193019281600f015501889062000170565b838351930192816009015501889062000160565b838351930192816003015501889062000150565b62461bcd60e51b815260048101869052601360248201527f737461626c65636f696e207265717569726564000000000000000000000000006044820152606490fd5b8c51631e4fbdf760e01b815260006004820152602490fd5b600080fd5b6040519060c082016001600160401b03811183821017620004ef57604052565b634e487b7160e01b600052604160045260246000fd5b6040519190601f01601f191682016001600160401b03811183821017620004ef57604052565b51906001600160a01b0382168203620004ca57565b60005b838110620005545750506000910152565b818101518382015260200162000543565b81601f82011215620004ca5780516001600160401b038111620004ef5762000597601f8201601f191660200162000505565b9281845260208284010111620004ca57620005b9916020808501910162000540565b90565b9080601f83011215620004ca57620005d3620004cf565b809260c08101928311620004ca57905b828210620005f15750505090565b8151815260209182019101620005e3565b60ff1660ff8114620006145760010190565b634e487b7160e01b600052601160045260246000fd5b9060068110156200063c5760051b0190565b634e487b7160e01b600052603260045260246000fd5b906020916200066d8151809281855285808601910162000540565b601f01601f1916010190565b6000915b600683106200068b57505050565b6001908251815260208091019201920191906200067d56fe60806040908082526004908136101561001757600080fd5b600092833560e01c918263055ad42e146118bf5750816306bbc3c3146117b157816312d200cc146117925781631d52137e146117745781631e04ce76146117555781632458e76e1461148b57816328a8e35f1461145e5781632eb375ea146113335781633f4ba83a146112b85781634f24d20a1461129257816353be92831461126b5781635ba893d81461124c5781635c975abb14611227578163658e28a414610fac57816365be97d114610f71578163677ba3d314610f31578163715018a614610ed7578163719ec6b114610e9c57816375c5422414610deb5781637b9a2d5c14610dcc5781638456cb5914610d605781638471fafc14610d3b5781638da5cb5b14610d135781638e12ebc714610cbc578163914278d014610b9857816396365d4414610b79578163a10954fe14610b5a578163a6afed9514610b36578163a6e019b014610b09578163aae5c3b814610ae3578163ac384a3214610ac4578163ad0c49f214610aa5578163b16dd6b314610a7e578163b695694214610985578163b6b55f25146106f8578163b752b383146106d9578163be9ba76d14610422578163c1ff0f0e1461053b578163c5c4744c1461051c578163cebf3bb7146104e1578163e6aca06a146104c4578163e9cbd82214610480578163eacb482b14610453578163eb11ae8b14610422578163eb9f1b1d14610406578163f2fde38b14610374578163f62a98cc14610355578163f6b0216c14610324578163fc0c546a146102fb575063fd1b9dc61461024c57600080fd5b346102f75760803660031901126102f7576102656118f4565b67ffffffffffffffff906024358281116102f3576102869036908501611904565b90926044358181116102ef5761029f9036908701611904565b9290916064359081116102eb576102e8966102bc91369101611904565b9590946102d360018060a01b038a54163314611935565b6102db612082565b6102e36120a3565b611d6d565b80f35b8780fd5b8680fd5b8480fd5b5080fd5b8390346102f757816003193601126102f75760025490516001600160a01b039091168152602090f35b91905034610351576020366003190112610351573560068110156103515760209250600301549051908152f35b8280fd5b8390346102f757816003193601126102f7576020906017549051908152f35b91905034610351576020366003190112610351576103906118de565b9061039961246d565b6001600160a01b039182169283156103f0575050600054826bffffffffffffffffffffffff60a01b821617600055167f8be0079c531659141344cd1fd0a4f28419497f9722a3daafe3b4186f6b6457e0600080a380f35b51631e4fbdf760e01b8152908101849052602490fd5b8390346102f757816003193601126102f7576020905160058152f35b8390346102f75760203660031901126102f7578060209260ff6104436118f4565b1681526018845220549051908152f35b8390346102f75760203660031901126102f7576020906104796104746118de565b612499565b9051908152f35b8390346102f757816003193601126102f757517f00000000000000000000000000000000000000000000000000000000000000006001600160a01b03168152602090f35b8390346102f757816003193601126102f757602090610479611c89565b8390346102f757816003193601126102f757602090517f00000000000000000000000000000000000000000000000000000000000000008152f35b8390346102f757816003193601126102f7576020906016549051908152f35b9050346103515760203660031901126103515782546001600160a01b03928035929161056a9085163314611935565b61057261205f565b61057a612082565b6105826120a3565b61059360ff60155460181c16611a5c565b61059e83151561196c565b6105a6612566565b90601754916105b585846119a3565b116106a75783601c54106106705750916020916105f3827f940bcb002dc18e6a1837bac302a6a2581c5d2ba0226f6cea61737fc935ca7679956119a3565b6017556106488260ff610604612694565b16966005881115610654575b61061c82601c546119c6565b601c558854167f0000000000000000000000000000000000000000000000000000000000000000612354565b51908152a26001805580f35b878952601886528389206106698382546119a3565b9055610610565b606490602084519162461bcd60e51b835282015260116024820152701a5b9cdd59999a58da595b9d081c1bdbdb607a1b6044820152fd5b606490602084519162461bcd60e51b8352820152600c60248201526b65786365656473206361707360a01b6044820152fd5b8390346102f757816003193601126102f757602090601f549051908152f35b9050346103515760203660031901126103515781359161071661205f565b61071e612082565b6107266120a3565b60155460ff811660058114610942579085929160ff8260101c1690818092610933575b6107539015611a5c565b156108b7575b5061076585151561196c565b610771856016546119a3565b8060165561078186601c546119a3565b601c5561079086601f546119a3565b601f5560ff8260181c1615908161088c575b50610876575b506107d58430337f000000000000000000000000000000000000000000000000000000000000000061224d565b6002546001600160a01b0316803b156103515783516340c10f1960e01b81523392810192835260208301869052918391839182908490829060400103925af1801561086c57610858575b5050807f90890809c654f11d6e72a28fa60149770a0d11ec6c92319d6ceb2bb0a4ea1a1591519280845260208401523392a26001805580f35b610861906119d3565b61035157823861081f565b83513d84823e3d90fd5b63ff0000001916630100000017601555386107a8565b90507f00000000000000000000000000000000000000000000000000000000000000001115386107a2565b909192507f0000000000000000000000000000000000000000000000000000000000000000421115908161092a575b50156108f55790849138610759565b506020606492519162461bcd60e51b8352820152600f60248201526e199d5b991c985a5cd948195b991959608a1b6044820152fd5b905015386108e6565b50601883901c60ff1615610749565b835162461bcd60e51b8152602081850152601a60248201527f6465706f7369747320636c6f73656420696e20706861736520350000000000006044820152606490fd5b91905034610351576020366003190112610351576109a16118de565b916109aa61205f565b6109b2612082565b6109ba6120a3565b6109c383612499565b918215610a565750816020916106487fc15f451120b13b6b40c6ad6203614ab3088308bef9150c0d6f46ea79bf4642249460018060a01b0387169687895260268652838920610a138382546119a3565b9055610a2d82601c54610a2882821015611a1f565b6119c6565b601c557f0000000000000000000000000000000000000000000000000000000000000000612354565b606491519062461bcd60e51b82526020818301526024820152636e6f6e6560e01b6044820152fd5b8390346102f757816003193601126102f75760209060ff60155460181c1690519015158152f35b8390346102f757816003193601126102f757602090601a549051908152f35b8390346102f757816003193601126102f757602090601d549051908152f35b8390346102f75760203660031901126102f757602090610479610b046118f4565b611bf8565b91905034610351576020366003190112610351573560068110156103515760209250600901549051908152f35b8334610b575780600319360112610b5757610b4f612082565b6102e86120a3565b80fd5b8390346102f757816003193601126102f757602090601b549051908152f35b8390346102f757816003193601126102f757602090601c549051908152f35b839150346102f757806003193601126102f757823560243593610bc560018060a01b038554163314611935565b610bcd612082565b610bd56120a3565b600560ff6015541603610c8b5760648211610c62576019548210610c2d57507f49d00690d82dc37b8ab62cb7c34d5e9e1875b66427e1be943a05e463f4b9120592938160195580601a5582519182526020820152a180f35b606490602084519162461bcd60e51b8352820152600f60248201526e1b5d5cdd081899480f8f481b185cdd608a1b6044820152fd5b60649083519062461bcd60e51b825260208183015260248201526303e3130360e41b6044820152fd5b606490602084519162461bcd60e51b8352820152600b60248201526a6e6f74207068617365203560a81b6044820152fd5b828434610b57576020366003190112610b5757506020606492610cdd6118de565b505162461bcd60e51b81529182015260156024820152741d5cd9481dda5d1a191c985dd41c9a5b98da5c185b605a1b6044820152fd5b8390346102f757816003193601126102f757905490516001600160a01b039091168152602090f35b8390346102f757816003193601126102f75760209060ff60155460081c169051908152f35b8390346102f757816003193601126102f75781547f62e78cea01bee320cd4e420270b5ea74000d11b0c9f74754ebdbfc544b05a25891602091610dad336001600160a01b03831614611935565b610db5612082565b60ff60a01b1916600160a01b17845551338152a180f35b8390346102f757816003193601126102f757602090601e549051908152f35b91905034610351576020366003190112610351573590610e1560018060a01b038454163314611935565b610e1d61205f565b610e25612082565b610e3082151561196c565b610e3c82601b546119a3565b601b55610e6b8230337f000000000000000000000000000000000000000000000000000000000000000061224d565b519081527f70859294f72c29c0fb08dcdd44e152b4bf107c94775c4e5a542610e3d7538f5460203392a26001805580f35b8390346102f757816003193601126102f757602090517f00000000000000000000000000000000000000000000000000000000000000008152f35b8334610b575780600319360112610b5757610ef061246d565b600080546001600160a01b0319811682556001600160a01b03167f8be0079c531659141344cd1fd0a4f28419497f9722a3daafe3b4186f6b6457e08280a380f35b8334610b57576060366003190112610b5757610f4b6118de565b602435906001600160a01b0382168203610f6c576102e89160443591611ae3565b600080fd5b8390346102f757816003193601126102f757602090517f00000000000000000000000000000000000000000000000000000000000000008152f35b9050346103515760208060031936011261113f57823592610fcb61205f565b610fd3612082565b610fdb6120a3565b610fec60ff60155460181c16611a5c565b83156111fb5760025483516370a0823160e01b815233838201526001600160a01b03909116908381602481855afa9081156111f15790869188916111c0575b50106111885784601d541061114d57908186923b15610351578451632770a7eb60e21b81523392810192835260208301879052918391839182908490829060400103925af180156111435761112b575b50507f2e6100b89b43378c0aeb062f2df0cfaa63e4437abab6844b441f8e47cb31bec3916110ab84601d546119c6565b601d556110ba84601e546119a3565b601e556110d084601c54610a2882821015611a1f565b601c55601f5484808210611123576110e7916119c6565b601f5561111584337f0000000000000000000000000000000000000000000000000000000000000000612354565b519283523392a26001805580f35b5050846110e7565b611134906119d3565b61113f57833861107b565b8380fd5b84513d84823e3d90fd5b50915162461bcd60e51b81529182015260166024820152751a5b9cdd59999a58da595b9d081c1c9a5b98da5c185b60521b6044820152606490fd5b50915162461bcd60e51b8152918201526013602482015272696e73756666696369656e742073686172657360681b6044820152606490fd5b809250858092503d83116111ea575b6111d981836119fd565b81010312610f6c578590513861102b565b503d6111cf565b85513d89823e3d90fd5b915162461bcd60e51b815291820152600860248201526707368617265733d360c41b6044820152606490fd5b8390346102f757816003193601126102f75760ff6020925460a01c1690519015158152f35b8390346102f757816003193601126102f7576020906021549051908152f35b8390346102f757816003193601126102f75760209060ff60155460101c1690519015158152f35b8390346102f75760203660031901126102f7576020906104796112b36118de565b612395565b919050346103515782600319360112610351578254906112e2336001600160a01b03841614611935565b60ff8260a01c1615611325575060ff60a01b19168255513381527f5db9ee0a495bf2e6ff9c91a7834c1ba4fdd244a5e8aa4e537bd38aeae4b073aa90602090a180f35b8251638dfc202b60e01b8152fd5b9050346103515760203660031901126103515781359161135161205f565b611359612082565b6113616120a3565b61136a33612395565b8315159081611453575b5015611424575033835260256020528083206113918382546119a3565b90556113a682601c54610a2882821015611a1f565b601c55601f548280821061141c576113bd916119c6565b601f556113eb82337f0000000000000000000000000000000000000000000000000000000000000000612354565b519081527ff9984c8173c4b4ff9cc454f76ed19c053f4490ccb224fd9ddffeb4ef4bea353060203392a26001805580f35b5050826113bd565b6020606492519162461bcd60e51b8352820152600a60248201526918985908185b5bdd5b9d60b21b6044820152fd5b905083111538611374565b91905034610351576020366003190112610351573560068110156103515760209250600f01549051908152f35b8383346102f75760209283600319360112610351576114a86118de565b936114b161205f565b6114b9612082565b6114c16120a3565b60155460ff8160181c161580611747575b8061171e575b6116e1575b5060155460ff8160101c1690816116d2575b50156116a4576001600160a01b03858116939084156116775760025416918351946370a0823160e01b8652828601528085602481865afa94851561166d57869561163a575b50841561160b5750813b156102f3578251632770a7eb60e21b81526001600160a01b038716918101918252602082018590529291859184919082908490829060400103925af190811561160257506115ef575b506115e091926115a082601c54610a2882821015611a1f565b601c55601f54828082106115e7576115b7916119c6565b601f557f0000000000000000000000000000000000000000000000000000000000000000612354565b6001805580f35b5050836115b7565b916115fc6115e0936119d3565b91611587565b513d85823e3d90fd5b835162461bcd60e51b815291820152600a6024820152696e6f2062616c616e636560b01b604482015260649150fd5b9080955081813d8311611666575b61165281836119fd565b8101031261166257519387611534565b8580fd5b503d611648565b84513d88823e3d90fd5b50915162461bcd60e51b81529182015260086024820152673130b2103ab9b2b960c11b6044820152606490fd5b905162461bcd60e51b815291820152600a6024820152691b9bdd0819985a5b195960b21b6044820152606490fd5b60ff915060181c1615866114ef565b620100009062ff00001916176015557fb52b66827b1931e8f75b5cfc0f0ac02ebb32fa863d0000c22bb926eb57c08862818351868152a1856114dd565b507f000000000000000000000000000000000000000000000000000000000000000042116114d8565b5060ff8160101c16156114d2565b8390346102f757816003193601126102f7576020906022549051908152f35b8390346102f757816003193601126102f75760209081549051908152f35b8390346102f757816003193601126102f7576020906019549051908152f35b91905034610351576020366003190112610351577f20ee97c9e69ab2210abc7769e9fdca436c4a09b118db8edea3a50ec5a8a527fe91602091359061180060018060a01b038654163314611935565b61180861205f565b611810612082565b6118186120a3565b61182382151561196c565b61184f8230337f000000000000000000000000000000000000000000000000000000000000000061224d565b61185b82601c546119a3565b601c5561186a82601f546119a3565b601f5561187982601d546119a3565b80601d5561188c601654601e54906119c6565b8082116118a2575b505051908152a16001805580f35b6118af816118b8936119c6565b90601d556122a8565b3880611894565b8490346102f757816003193601126102f75760209060ff601554168152f35b600435906001600160a01b0382168203610f6c57565b6004359060ff82168203610f6c57565b9181601f84011215610f6c5782359167ffffffffffffffff8311610f6c576020808501948460051b010111610f6c57565b1561193c57565b60405162461bcd60e51b8152602060048201526008602482015267646576206f6e6c7960c01b6044820152606490fd5b1561197357565b60405162461bcd60e51b81526020600482015260086024820152670616d6f756e743d360c41b6044820152606490fd5b919082018092116119b057565b634e487b7160e01b600052601160045260246000fd5b919082039182116119b057565b67ffffffffffffffff81116119e757604052565b634e487b7160e01b600052604160045260246000fd5b90601f8019910116810190811067ffffffffffffffff8211176119e757604052565b15611a2657565b60405162461bcd60e51b815260206004820152600e60248201526d706f6f6c20756e646572666c6f7760901b6044820152606490fd5b15611a6357565b60405162461bcd60e51b815260206004820152601060248201526f199d5b991c985a5cd94819985a5b195960821b6044820152606490fd5b818102929181159184041417156119b057565b919091600083820193841291129080158216911516176119b057565b818103929160001380158285131691841216176119b057565b6002549092916001600160a01b039182163303611ba6578215611ba05781611b19611b1085602154611a9b565b94602254611a9b565b941680611b65575b50169081611b2e57505050565b816000526023602052611b476040600020918254611aca565b90556000526024602052611b616040600020918254611aca565b9055565b8060005260236020526040600020611b7e858254611aae565b905560005260246020526040600020611b98858254611aae565b905538611b21565b50505050565b60405162461bcd60e51b815260206004820152600a60248201526937b7363c903a37b5b2b760b11b6044820152606490fd5b8115611be2570490565b634e487b7160e01b600052601260045260246000fd5b600560ff821611611c57576006811015611c4157611c3d61271091600f01547f0000000000000000000000000000000000000000000000000000000000000000611a9b565b0490565b634e487b7160e01b600052603260045260246000fd5b60405162461bcd60e51b815260206004820152600a602482015269706861736520302e2e3560b01b6044820152606490fd5b60ff60155460181c1615611cce57611c9f612566565b60175480821115611cc757611cb3916119c6565b601c5480821015611cc2575090565b905090565b5050600090565b600090565b8183526020600583901b84018101939192906000818401855b848310611cfd575050505050505090565b90919293949596601f19808883030184528835601e1984360301811215610f6c578301868101903567ffffffffffffffff8111610f6c578036038213610f6c57838893601f83808796879660019a5286860137600085828601015201160101990193019301919594939290611cec565b92939560ff96878516936005851161202a576015968754948a86168703611ff1578215611fbc5783831480611fb3575b15611f7757611db89060405193606085526060850191611cd3565b828103602084810191909152848252996001600160fb1b038511610f6c5787958b8594611e1c947f45416f56c1fe97d8b51056013471bd65699f72e70e5d48af0ab4dcc9f1b9e2479860051b80928483013701818682030160408701520191611cd3565b0390a28115611ecd575061ff0083549260081b16918261ff0019821617845585811660058110611eac575b5050600491501480611e9e575b611e5d57505050565b7fb52b66827b1931e8f75b5cfc0f0ac02ebb32fa863d0000c22bb926eb57c08862926201000062ff000019835416178092556040519160181c1615158152a1565b5082815460101c1615611e54565b600101928684116119b05786600494169161ffff1916171783553880611e47565b9392949150506016547f0000000000000000000000000000000000000000000000000000000000000000119182611f3f57508260181c16159081611f36575b50611f21575b50805461ffff19166001179055565b63ff0000001916630100000017815538611f12565b90501538611f0c565b6064906040519062461bcd60e51b8252600482015260116024820152701b5a5b881c985a5cd9481b9bdd081b595d607a1b6044820152fd5b60405162461bcd60e51b81526020600482015260146024820152730c8dec6e640d8cadccee8d040dad2e6dac2e8c6d60631b6044820152606490fd5b50848314611d9d565b60405162461bcd60e51b815260206004820152600d60248201526c191bd8dcc81c995c5d5a5c9959609a1b6044820152606490fd5b60405162461bcd60e51b81526020600482015260116024820152706e6f742063757272656e7420706861736560781b6044820152606490fd5b60405162461bcd60e51b815260206004820152600d60248201526c696e76616c696420706861736560981b6044820152606490fd5b600260015414612070576002600155565b604051633ee5aeb560e01b8152600490fd5b60ff60005460a01c1661209157565b60405163d93c066560e01b8152600490fd5b60155460ff8160181c168061223f575b1561223857602090815480421115612229576120d160ff91426119c6565b91428455166006811015611c415760030154908115801561222e575b6122295761210d64496cebb80091612108601f549485611a9b565b611a9b565b0490811561222957601b548281106121f1576121459161212e8480936119c6565b601b5561213d82601c546119a3565b601c556119a3565b601f556002546040516318160ddd60e01b8152908390829060049082906001600160a01b03165afa9283156121e5576000936121b5575b505081612187575050565b670de0b6b3a7640000808202918204036119b0576121b0916121a891611bd8565b6021546119a3565b602155565b9080929350813d83116121de575b6121cd81836119fd565b81010312610f6c575190388061217c565b503d6121c3565b6040513d6000823e3d90fd5b60405162461bcd60e51b815260048101859052601060248201526f1c995cd95c9d994819195c1b195d195960821b6044820152606490fd5b505050565b50601f54156120ed565b5042602055565b50600160ff821610156120b3565b6040516323b872dd60e01b60208201526001600160a01b03928316602482015292909116604483015260648083019390935291815260a081019181831067ffffffffffffffff8411176119e7576122a6926040526126e4565b565b8015612351576002546040516318160ddd60e01b81529190602090839060049082906001600160a01b03165afa9182156121e55760009261231d575b50811561231957670de0b6b3a7640000808202918204036119b0576123149161230c91611bd8565b6022546119a3565b602255565b5050565b9091506020813d602011612349575b81612339602093836119fd565b81010312610f6c575190386122e4565b3d915061232c565b50565b60405163a9059cbb60e01b60208201526001600160a01b039290921660248301526044808301939093529181526122a6916123906064836119fd565b6126e4565b6002546040516370a0823160e01b81526001600160a01b03928316600482018190526020939092849183916024918391165afa9081156121e55760009161243e575b506123f461240b91670de0b6b3a764000091829160215490611a9b565b049083600052602385526040600020540590611aae565b916000831315612436576025916000525260406000205480821115611cc757612433916119c6565b90565b505050600090565b90508281813d8311612466575b61245581836119fd565b81010312610f6c57516123f46123d7565b503d61244b565b6000546001600160a01b0316330361248157565b60405163118cdaa760e01b8152336004820152602490fd5b6002546040516370a0823160e01b81526001600160a01b03928316600482018190526020939092849183916024918391165afa9081156121e557600091612537575b506124f861250f91670de0b6b3a764000091829160225490611a9b565b049083600052602485526040600020540590611aae565b916000831315612436576026916000525260406000205480821115611cc757612433916119c6565b90508281813d831161255f575b61254e81836119fd565b81010312610f6c57516124f86124db565b503d612544565b60008060155460ff9060ff8116916001916001841015612658575b60081c60ff16936001835b6125fc575b5050505060056127106125c66014547f0000000000000000000000000000000000000000000000000000000000000000611a9b565b0492106125d75750612433916119a3565b6005146125e2575090565b9060646125f56124339360195490611a9b565b04906119a3565b8583821660048111612651571115612634575b82168281146126205783018361258c565b634e487b7160e01b82526011600452602482fd5b95612649839161264389611bf8565b906119a3565b96905061260f565b5050612591565b945060ff61271061268b600f547f0000000000000000000000000000000000000000000000000000000000000000611a9b565b04959050612581565b601554600560ff821614806126d4575b6126ce5760081c60ff166001811015806126c3575b6124335750600090565b5060058111156126b9565b50600590565b50600560ff8260081c16106126a4565b906000602091828151910182855af1156121e5576000513d61273757506001600160a01b0381163b155b6127155750565b604051635274afe760e01b81526001600160a01b039091166004820152602490fd5b6001141561270e56fea2646970667358221220b46de0bd83ae6a9fe433da4cac6c06eb945ca829bee7b36abd695bfa5c3a1e0e64736f6c6343000818003360a060405234620003925762000ea0803803806200001d8162000397565b928339810190606081830312620003925780516001600160401b03929083811162000392578162000050918401620003bd565b9260209182840151828111620003925760409162000070918601620003bd565b930151936001600160a01b038516918286036200039257815181811162000292576003908154906001948583811c9316801562000387575b8884101462000371578190601f938481116200031b575b508890848311600114620002b457600092620002a8575b505060001982851b1c191690851b1782555b8651928311620002925760049687548581811c9116801562000287575b88821014620002725782811162000227575b5086918411600114620001bc57938394918492600095620001b0575b50501b92600019911b1c19161783555b156200017a5782608052604051610a70908162000430823960805181818160bc015281816101900152818161042401526109620152f35b60405162461bcd60e51b815291820152601060248201526f1c1c9bda9958dd081c995c5d5a5c995960821b604482015260649150fd5b01519350388062000133565b9190601f198416928860005284886000209460005b8a898383106200020f5750505010620001f4575b50505050811b01835562000143565b01519060f884600019921b161c1916905538808080620001e5565b868601518955909701969485019488935001620001d1565b88600052876000208380870160051c8201928a881062000268575b0160051c019086905b8281106200025b57505062000117565b600081550186906200024b565b9250819262000242565b602289634e487b7160e01b6000525260246000fd5b90607f169062000105565b634e487b7160e01b600052604160045260246000fd5b015190503880620000d6565b90879350601f19831691866000528a6000209260005b8c828210620003045750508411620002eb575b505050811b018255620000e8565b015160001983871b60f8161c19169055388080620002dd565b8385015186558b97909501949384019301620002ca565b90915084600052886000208480850160051c8201928b861062000367575b918991869594930160051c01915b82811062000357575050620000bf565b6000815585945089910162000347565b9250819262000339565b634e487b7160e01b600052602260045260246000fd5b92607f1692620000a8565b600080fd5b6040519190601f01601f191682016001600160401b038111838210176200029257604052565b919080601f84011215620003925782516001600160401b0381116200029257602090620003f3601f8201601f1916830162000397565b92818452828287010111620003925760005b8181106200041b57508260009394955001015290565b85810183015184820184015282016200040556fe608060408181526004918236101561001657600080fd5b600092833560e01c91826306fdde03146106f257508163095ea7b31461064857816318160ddd1461062957816323b872dd14610532578163313ce5671461051657816340c10f191461040057816370a08231146103c957816395d89b41146102c45781639dc29fac1461016757508063a9059cbb14610137578063dd62ed3e146100ef5763f60ca60d146100a957600080fd5b346100eb57816003193601126100eb57517f00000000000000000000000000000000000000000000000000000000000000006001600160a01b03168152602090f35b5080fd5b50346100eb57806003193601126100eb578060209261010c61082c565b610114610847565b6001600160a01b0391821683526001865283832091168252845220549051908152f35b50346100eb57806003193601126100eb5760209061016061015661082c565b60243590336108e4565b5160018152f35b919050346102c057806003193601126102c05761018261082c565b602435926001600160a01b037f0000000000000000000000000000000000000000000000000000000000000000811691906101be3384146108a9565b83169283156102a9578387528660205284872054908682106102755750908584939288958652856020520385852055856002540360025583837fddf252ad1be2c89b69c2b068fc378daa952ba7f163c4a11628f55a4df523b3ef602088518a8152a3813b1561027157836064928651978895869463677ba3d360e01b865285015282602485015260448401525af1908115610268575061025c575080f35b6102659061085d565b80f35b513d84823e3d90fd5b8380fd5b855163391434e360e21b81526001600160a01b03909116818401908152602081018390526040810188905281906060010390fd5b8451634b637e8f60e11b8152808301889052602490fd5b8280fd5b8383346100eb57816003193601126100eb5780519180938054916001908360011c92600185169485156103bf575b60209586861081146103ac578589529081156103885750600114610330575b61032c8787610322828c0383610887565b51918291826107e3565b0390f35b81529295507f8a35acfbc15ff81a39ae7d344fd709f28e8600b4aa8c65c6b64bfe7fe36bd19b5b828410610375575050508261032c9461032292820101948680610311565b8054868501880152928601928101610357565b60ff19168887015250505050151560051b83010192506103228261032c8680610311565b634e487b7160e01b845260228352602484fd5b93607f16936102f2565b5050346100eb5760203660031901126100eb5760209181906001600160a01b036103f161082c565b16815280845220549051908152f35b8383346100eb57806003193601126100eb5761041a61082c565b6001600160a01b037f00000000000000000000000000000000000000000000000000000000000000008116929160243591906104573386146108a9565b169283156104ff576002548281018091116104ec5790868693926002558584528360205284842083815401905585847fddf252ad1be2c89b69c2b068fc378daa952ba7f163c4a11628f55a4df523b3ef60208851878152a3813b15610271578360649281948751988996879563677ba3d360e01b8752860152602485015260448401525af1908115610268575061025c575080f35b634e487b7160e01b865260118752602486fd5b825163ec442f0560e01b8152808701869052602490fd5b5050346100eb57816003193601126100eb576020905160068152f35b905082346106265760603660031901126106265761054e61082c565b610556610847565b916044359360018060a01b038316808352600160205286832033845260205286832054916000198310610592575b6020886101608989896108e4565b8683106105fa5781156105e35733156105cc5750825260016020908152868320338452815291869020908590039055829061016087610584565b8751634a1406b160e11b8152908101849052602490fd5b875163e602df0560e01b8152908101849052602490fd5b8751637dc7a0d960e11b8152339181019182526020820193909352604081018790528291506060010390fd5b80fd5b5050346100eb57816003193601126100eb576020906002549051908152f35b9050346102c057816003193601126102c05761066261082c565b6024359033156106db576001600160a01b03169182156106c457508083602095338152600187528181208582528752205582519081527f8c5be1e5ebec7d5bd14f71427d1e84f3dd0314c0f7b2291e5b200ac8c7c3b925843392a35160018152f35b8351634a1406b160e11b8152908101859052602490fd5b835163e602df0560e01b8152808401869052602490fd5b92915034610271578360031936011261027157600354600181811c91869082811680156107d9575b60209586861082146107c657508488529081156107a4575060011461074b575b61032c8686610322828b0383610887565b929550600383527fc2575a0e9e593c00f959f8c92f12db2869c3395a3b0502d05e2516446f71f85b5b828410610791575050508261032c9461032292820101943861073a565b8054868501880152928601928101610774565b60ff191687860152505050151560051b83010192506103228261032c3861073a565b634e487b7160e01b845260229052602483fd5b93607f169361071a565b6020808252825181830181905290939260005b82811061081857505060409293506000838284010152601f8019910116010190565b8181018601518482016040015285016107f6565b600435906001600160a01b038216820361084257565b600080fd5b602435906001600160a01b038216820361084257565b67ffffffffffffffff811161087157604052565b634e487b7160e01b600052604160045260246000fd5b90601f8019910116810190811067ffffffffffffffff82111761087157604052565b156108b057565b60405162461bcd60e51b815260206004820152600c60248201526b1bdb9b1e481c1c9bda9958dd60a21b6044820152606490fd5b906001600160a01b0390818316908115610a21578216908115610a08576000928184528360205260409485852054908782106109d75750869083865285602052038585205582845284842086815401905582827fddf252ad1be2c89b69c2b068fc378daa952ba7f163c4a11628f55a4df523b3ef602088518a8152a37f000000000000000000000000000000000000000000000000000000000000000016803b1561027157839291836064928751988995869463677ba3d360e01b86526004860152602485015260448401525af19182156109cd5750506109c25750565b6109cb9061085d565b565b51903d90823e3d90fd5b865163391434e360e21b81526001600160a01b03919091166004820152602481019190915260448101879052606490fd5b60405163ec442f0560e01b815260006004820152602490fd5b604051634b637e8f60e11b815260006004820152602490fdfea264697066735822122029c3ce079e5d56cf509b26ec2d334f93b85e70d51cf592378eab9a61c97e492564736f6c63430008180033a26469706673582212207e22b990eef1a33b8081955e1acce763619777a5a43cf51ada5a2ec1ee83961064736f6c63430008180033",
  "linkReferences": {},
  "deployedLinkReferences": {}
}